{
  "contractName": "Color",
  "abi": [
    {
      "inputs": [],
      "stateMutability": "nonpayable",
      "type": "constructor"
    },
    {
      "anonymous": false,
      "inputs": [
        {
          "indexed": true,
          "internalType": "address",
          "name": "owner",
          "type": "address"
        },
        {
          "indexed": true,
          "internalType": "address",
          "name": "approved",
          "type": "address"
        },
        {
          "indexed": true,
          "internalType": "uint256",
          "name": "tokenId",
          "type": "uint256"
        }
      ],
      "name": "Approval",
      "type": "event"
    },
    {
      "anonymous": false,
      "inputs": [
        {
          "indexed": true,
          "internalType": "address",
          "name": "owner",
          "type": "address"
        },
        {
          "indexed": true,
          "internalType": "address",
          "name": "operator",
          "type": "address"
        },
        {
          "indexed": false,
          "internalType": "bool",
          "name": "approved",
          "type": "bool"
        }
      ],
      "name": "ApprovalForAll",
      "type": "event"
    },
    {
      "anonymous": false,
      "inputs": [
        {
          "indexed": true,
          "internalType": "address",
          "name": "from",
          "type": "address"
        },
        {
          "indexed": true,
          "internalType": "address",
          "name": "to",
          "type": "address"
        },
        {
          "indexed": true,
          "internalType": "uint256",
          "name": "tokenId",
          "type": "uint256"
        }
      ],
      "name": "Transfer",
      "type": "event"
    },
    {
      "inputs": [
        {
          "internalType": "address",
          "name": "to",
          "type": "address"
        },
        {
          "internalType": "uint256",
          "name": "tokenId",
          "type": "uint256"
        }
      ],
      "name": "approve",
      "outputs": [],
      "stateMutability": "nonpayable",
      "type": "function"
    },
    {
      "inputs": [
        {
          "internalType": "address",
          "name": "owner",
          "type": "address"
        }
      ],
      "name": "balanceOf",
      "outputs": [
        {
          "internalType": "uint256",
          "name": "",
          "type": "uint256"
        }
      ],
      "stateMutability": "view",
      "type": "function",
      "constant": true
    },
    {
      "inputs": [
        {
          "internalType": "uint256",
          "name": "",
          "type": "uint256"
        }
      ],
      "name": "colors",
      "outputs": [
        {
          "internalType": "string",
          "name": "",
          "type": "string"
        }
      ],
      "stateMutability": "view",
      "type": "function",
      "constant": true
    },
    {
      "inputs": [
        {
          "internalType": "uint256",
          "name": "tokenId",
          "type": "uint256"
        }
      ],
      "name": "getApproved",
      "outputs": [
        {
          "internalType": "address",
          "name": "",
          "type": "address"
        }
      ],
      "stateMutability": "view",
      "type": "function",
      "constant": true
    },
    {
      "inputs": [
        {
          "internalType": "address",
          "name": "owner",
          "type": "address"
        },
        {
          "internalType": "address",
          "name": "operator",
          "type": "address"
        }
      ],
      "name": "isApprovedForAll",
      "outputs": [
        {
          "internalType": "bool",
          "name": "",
          "type": "bool"
        }
      ],
      "stateMutability": "view",
      "type": "function",
      "constant": true
    },
    {
      "inputs": [],
      "name": "name",
      "outputs": [
        {
          "internalType": "string",
          "name": "",
          "type": "string"
        }
      ],
      "stateMutability": "view",
      "type": "function",
      "constant": true
    },
    {
      "inputs": [
        {
          "internalType": "uint256",
          "name": "tokenId",
          "type": "uint256"
        }
      ],
      "name": "ownerOf",
      "outputs": [
        {
          "internalType": "address",
          "name": "",
          "type": "address"
        }
      ],
      "stateMutability": "view",
      "type": "function",
      "constant": true
    },
    {
      "inputs": [
        {
          "internalType": "address",
          "name": "from",
          "type": "address"
        },
        {
          "internalType": "address",
          "name": "to",
          "type": "address"
        },
        {
          "internalType": "uint256",
          "name": "tokenId",
          "type": "uint256"
        }
      ],
      "name": "safeTransferFrom",
      "outputs": [],
      "stateMutability": "nonpayable",
      "type": "function"
    },
    {
      "inputs": [
        {
          "internalType": "address",
          "name": "from",
          "type": "address"
        },
        {
          "internalType": "address",
          "name": "to",
          "type": "address"
        },
        {
          "internalType": "uint256",
          "name": "tokenId",
          "type": "uint256"
        },
        {
          "internalType": "bytes",
          "name": "_data",
          "type": "bytes"
        }
      ],
      "name": "safeTransferFrom",
      "outputs": [],
      "stateMutability": "nonpayable",
      "type": "function"
    },
    {
      "inputs": [
        {
          "internalType": "address",
          "name": "operator",
          "type": "address"
        },
        {
          "internalType": "bool",
          "name": "approved",
          "type": "bool"
        }
      ],
      "name": "setApprovalForAll",
      "outputs": [],
      "stateMutability": "nonpayable",
      "type": "function"
    },
    {
      "inputs": [
        {
          "internalType": "bytes4",
          "name": "interfaceId",
          "type": "bytes4"
        }
      ],
      "name": "supportsInterface",
      "outputs": [
        {
          "internalType": "bool",
          "name": "",
          "type": "bool"
        }
      ],
      "stateMutability": "view",
      "type": "function",
      "constant": true
    },
    {
      "inputs": [],
      "name": "symbol",
      "outputs": [
        {
          "internalType": "string",
          "name": "",
          "type": "string"
        }
      ],
      "stateMutability": "view",
      "type": "function",
      "constant": true
    },
    {
      "inputs": [
        {
          "internalType": "uint256",
          "name": "tokenId",
          "type": "uint256"
        }
      ],
      "name": "tokenURI",
      "outputs": [
        {
          "internalType": "string",
          "name": "",
          "type": "string"
        }
      ],
      "stateMutability": "view",
      "type": "function",
      "constant": true
    },
    {
      "inputs": [
        {
          "internalType": "address",
          "name": "from",
          "type": "address"
        },
        {
          "internalType": "address",
          "name": "to",
          "type": "address"
        },
        {
          "internalType": "uint256",
          "name": "tokenId",
          "type": "uint256"
        }
      ],
      "name": "transferFrom",
      "outputs": [],
      "stateMutability": "nonpayable",
      "type": "function"
    },
    {
      "inputs": [
        {
          "internalType": "string",
          "name": "_color",
          "type": "string"
        }
      ],
      "name": "mint",
      "outputs": [],
      "stateMutability": "nonpayable",
      "type": "function"
    },
    {
      "inputs": [],
      "name": "totalSupply",
      "outputs": [
        {
          "internalType": "uint256",
          "name": "",
          "type": "uint256"
        }
      ],
      "stateMutability": "view",
      "type": "function",
      "constant": true
    }
  ],
  "bytecode": "0x60806040523480156200001157600080fd5b506040518060400160405280600581526020017f436f6c6f720000000000000000000000000000000000000000000000000000008152506040518060400160405280600581526020017f434f4c4f52000000000000000000000000000000000000000000000000000000815250816000908051906020019062000096929190620000b5565b508051620000ac906001906020840190620000b5565b505050620001b1565b828054620000c3906200015b565b90600052602060002090601f016020900481019282620000e7576000855562000132565b82601f106200010257805160ff191683800117855562000132565b8280016001018555821562000132579182015b828111156200013257825182559160200191906001019062000115565b506200014092915062000144565b5090565b5b8082111562000140576000815560010162000145565b600181811c908216806200017057607f821691505b60208210811415620001ab577f4e487b7100000000000000000000000000000000000000000000000000000000600052602260045260246000fd5b50919050565b61166880620001c16000396000f3fe608060405234801561001057600080fd5b50600436106101005760003560e01c806370a0823111610097578063bd11f69d11610066578063bd11f69d1461020e578063c87b56dd14610221578063d85d3d2714610234578063e985e9c51461024757600080fd5b806370a08231146101cd57806395d89b41146101e0578063a22cb465146101e8578063b88d4fde146101fb57600080fd5b806318160ddd116100d357806318160ddd1461018257806323b872dd1461019457806342842e0e146101a75780636352211e146101ba57600080fd5b806301ffc9a71461010557806306fdde031461012d578063081812fc14610142578063095ea7b31461016d575b600080fd5b6101186101133660046112e2565b610283565b60405190151581526020015b60405180910390f35b6101356102d5565b6040516101249190611432565b610155610150366004611365565b610367565b6040516001600160a01b039091168152602001610124565b61018061017b3660046112b8565b610401565b005b6006545b604051908152602001610124565b6101806101a23660046111c4565b610517565b6101806101b53660046111c4565b610548565b6101556101c8366004611365565b610563565b6101866101db366004611176565b6105da565b610135610661565b6101806101f636600461127c565b610670565b610180610209366004611200565b610735565b61013561021c366004611365565b61076d565b61013561022f366004611365565b610819565b61018061024236600461131c565b610901565b610118610255366004611191565b6001600160a01b03918216600090815260056020908152604080832093909416825291909152205460ff1690565b60006001600160e01b031982166380ac58cd60e01b14806102b457506001600160e01b03198216635b5e139f60e01b145b806102cf57506301ffc9a760e01b6001600160e01b03198316145b92915050565b6060600080546102e490611557565b80601f016020809104026020016040519081016040528092919081815260200182805461031090611557565b801561035d5780601f106103325761010080835404028352916020019161035d565b820191906000526020600020905b81548152906001019060200180831161034057829003601f168201915b5050505050905090565b6000818152600260205260408120546001600160a01b03166103e55760405162461bcd60e51b815260206004820152602c60248201527f4552433732313a20617070726f76656420717565727920666f72206e6f6e657860448201526b34b9ba32b73a103a37b5b2b760a11b60648201526084015b60405180910390fd5b506000908152600460205260409020546001600160a01b031690565b600061040c82610563565b9050806001600160a01b0316836001600160a01b0316141561047a5760405162461bcd60e51b815260206004820152602160248201527f4552433732313a20617070726f76616c20746f2063757272656e74206f776e656044820152603960f91b60648201526084016103dc565b336001600160a01b038216148061049657506104968133610255565b6105085760405162461bcd60e51b815260206004820152603860248201527f4552433732313a20617070726f76652063616c6c6572206973206e6f74206f7760448201527f6e6572206e6f7220617070726f76656420666f7220616c6c000000000000000060648201526084016103dc565b61051283836109c6565b505050565b6105213382610a34565b61053d5760405162461bcd60e51b81526004016103dc90611497565b610512838383610b2b565b61051283838360405180602001604052806000815250610735565b6000818152600260205260408120546001600160a01b0316806102cf5760405162461bcd60e51b815260206004820152602960248201527f4552433732313a206f776e657220717565727920666f72206e6f6e657869737460448201526832b73a103a37b5b2b760b91b60648201526084016103dc565b60006001600160a01b0382166106455760405162461bcd60e51b815260206004820152602a60248201527f4552433732313a2062616c616e636520717565727920666f7220746865207a65604482015269726f206164647265737360b01b60648201526084016103dc565b506001600160a01b031660009081526003602052604090205490565b6060600180546102e490611557565b6001600160a01b0382163314156106c95760405162461bcd60e51b815260206004820152601960248201527f4552433732313a20617070726f766520746f2063616c6c65720000000000000060448201526064016103dc565b3360008181526005602090815260408083206001600160a01b03871680855290835292819020805460ff191686151590811790915590519081529192917f17307eab39ab6107e8899845ad3d59bd9653f200f220920489ca2b5937696c31910160405180910390a35050565b61073f3383610a34565b61075b5760405162461bcd60e51b81526004016103dc90611497565b61076784848484610ccb565b50505050565b6006818154811061077d57600080fd5b90600052602060002001600091509050805461079890611557565b80601f01602080910402602001604051908101604052809291908181526020018280546107c490611557565b80156108115780601f106107e657610100808354040283529160200191610811565b820191906000526020600020905b8154815290600101906020018083116107f457829003601f168201915b505050505081565b6000818152600260205260409020546060906001600160a01b03166108985760405162461bcd60e51b815260206004820152602f60248201527f4552433732314d657461646174613a2055524920717565727920666f72206e6f60448201526e3732bc34b9ba32b73a103a37b5b2b760891b60648201526084016103dc565b60006108af60408051602081019091526000815290565b905060008151116108cf57604051806020016040528060008152506108fa565b806108d984610cfe565b6040516020016108ea9291906113c6565b6040516020818303038152906040525b9392505050565b60078160405161091191906113aa565b9081526040519081900360200190205460ff161561092e57600080fd5b600680546001810182556000919091528151610971917ff652222313e28459528d920b65115c16c04f3efc82aaedc97be59f3f377c0d3f0190602084019061104b565b5060065460009061098490600190611514565b90506109903382610dfc565b60016007836040516109a291906113aa565b908152604051908190036020019020805491151560ff199092169190911790555050565b600081815260046020526040902080546001600160a01b0319166001600160a01b03841690811790915581906109fb82610563565b6001600160a01b03167f8c5be1e5ebec7d5bd14f71427d1e84f3dd0314c0f7b2291e5b200ac8c7c3b92560405160405180910390a45050565b6000818152600260205260408120546001600160a01b0316610aad5760405162461bcd60e51b815260206004820152602c60248201527f4552433732313a206f70657261746f7220717565727920666f72206e6f6e657860448201526b34b9ba32b73a103a37b5b2b760a11b60648201526084016103dc565b6000610ab883610563565b9050806001600160a01b0316846001600160a01b03161480610af35750836001600160a01b0316610ae884610367565b6001600160a01b0316145b80610b2357506001600160a01b0380821660009081526005602090815260408083209388168352929052205460ff165b949350505050565b826001600160a01b0316610b3e82610563565b6001600160a01b031614610ba65760405162461bcd60e51b815260206004820152602960248201527f4552433732313a207472616e73666572206f6620746f6b656e2074686174206960448201526839903737ba1037bbb760b91b60648201526084016103dc565b6001600160a01b038216610c085760405162461bcd60e51b8152602060048201526024808201527f4552433732313a207472616e7366657220746f20746865207a65726f206164646044820152637265737360e01b60648201526084016103dc565b610c136000826109c6565b6001600160a01b0383166000908152600360205260408120805460019290610c3c908490611514565b90915550506001600160a01b0382166000908152600360205260408120805460019290610c6a9084906114e8565b909155505060008181526002602052604080822080546001600160a01b0319166001600160a01b0386811691821790925591518493918716917fddf252ad1be2c89b69c2b068fc378daa952ba7f163c4a11628f55a4df523b3ef91a4505050565b610cd6848484610b2b565b610ce284848484610f3e565b6107675760405162461bcd60e51b81526004016103dc90611445565b606081610d225750506040805180820190915260018152600360fc1b602082015290565b8160005b8115610d4c5780610d3681611592565b9150610d459050600a83611500565b9150610d26565b60008167ffffffffffffffff811115610d6757610d67611603565b6040519080825280601f01601f191660200182016040528015610d91576020820181803683370190505b5090505b8415610b2357610da6600183611514565b9150610db3600a866115ad565b610dbe9060306114e8565b60f81b818381518110610dd357610dd36115ed565b60200101906001600160f81b031916908160001a905350610df5600a86611500565b9450610d95565b6001600160a01b038216610e525760405162461bcd60e51b815260206004820181905260248201527f4552433732313a206d696e7420746f20746865207a65726f206164647265737360448201526064016103dc565b6000818152600260205260409020546001600160a01b031615610eb75760405162461bcd60e51b815260206004820152601c60248201527f4552433732313a20746f6b656e20616c7265616479206d696e7465640000000060448201526064016103dc565b6001600160a01b0382166000908152600360205260408120805460019290610ee09084906114e8565b909155505060008181526002602052604080822080546001600160a01b0319166001600160a01b03861690811790915590518392907fddf252ad1be2c89b69c2b068fc378daa952ba7f163c4a11628f55a4df523b3ef908290a45050565b60006001600160a01b0384163b1561104057604051630a85bd0160e11b81526001600160a01b0385169063150b7a0290610f829033908990889088906004016113f5565b602060405180830381600087803b158015610f9c57600080fd5b505af1925050508015610fcc575060408051601f3d908101601f19168201909252610fc9918101906112ff565b60015b611026573d808015610ffa576040519150601f19603f3d011682016040523d82523d6000602084013e610fff565b606091505b50805161101e5760405162461bcd60e51b81526004016103dc90611445565b805181602001fd5b6001600160e01b031916630a85bd0160e11b149050610b23565b506001949350505050565b82805461105790611557565b90600052602060002090601f01602090048101928261107957600085556110bf565b82601f1061109257805160ff19168380011785556110bf565b828001600101855582156110bf579182015b828111156110bf5782518255916020019190600101906110a4565b506110cb9291506110cf565b5090565b5b808211156110cb57600081556001016110d0565b600067ffffffffffffffff808411156110ff576110ff611603565b604051601f8501601f19908116603f0116810190828211818310171561112757611127611603565b8160405280935085815286868601111561114057600080fd5b858560208301376000602087830101525050509392505050565b80356001600160a01b038116811461117157600080fd5b919050565b60006020828403121561118857600080fd5b6108fa8261115a565b600080604083850312156111a457600080fd5b6111ad8361115a565b91506111bb6020840161115a565b90509250929050565b6000806000606084860312156111d957600080fd5b6111e28461115a565b92506111f06020850161115a565b9150604084013590509250925092565b6000806000806080858703121561121657600080fd5b61121f8561115a565b935061122d6020860161115a565b925060408501359150606085013567ffffffffffffffff81111561125057600080fd5b8501601f8101871361126157600080fd5b611270878235602084016110e4565b91505092959194509250565b6000806040838503121561128f57600080fd5b6112988361115a565b9150602083013580151581146112ad57600080fd5b809150509250929050565b600080604083850312156112cb57600080fd5b6112d48361115a565b946020939093013593505050565b6000602082840312156112f457600080fd5b81356108fa81611619565b60006020828403121561131157600080fd5b81516108fa81611619565b60006020828403121561132e57600080fd5b813567ffffffffffffffff81111561134557600080fd5b8201601f8101841361135657600080fd5b610b23848235602084016110e4565b60006020828403121561137757600080fd5b5035919050565b6000815180845261139681602086016020860161152b565b601f01601f19169290920160200192915050565b600082516113bc81846020870161152b565b9190910192915050565b600083516113d881846020880161152b565b8351908301906113ec81836020880161152b565b01949350505050565b6001600160a01b03858116825284166020820152604081018390526080606082018190526000906114289083018461137e565b9695505050505050565b6020815260006108fa602083018461137e565b60208082526032908201527f4552433732313a207472616e7366657220746f206e6f6e20455243373231526560408201527131b2b4bb32b91034b6b83632b6b2b73a32b960711b606082015260800190565b60208082526031908201527f4552433732313a207472616e736665722063616c6c6572206973206e6f74206f6040820152701ddb995c881b9bdc88185c1c1c9bdd9959607a1b606082015260800190565b600082198211156114fb576114fb6115c1565b500190565b60008261150f5761150f6115d7565b500490565b600082821015611526576115266115c1565b500390565b60005b8381101561154657818101518382015260200161152e565b838111156107675750506000910152565b600181811c9082168061156b57607f821691505b6020821081141561158c57634e487b7160e01b600052602260045260246000fd5b50919050565b60006000198214156115a6576115a66115c1565b5060010190565b6000826115bc576115bc6115d7565b500690565b634e487b7160e01b600052601160045260246000fd5b634e487b7160e01b600052601260045260246000fd5b634e487b7160e01b600052603260045260246000fd5b634e487b7160e01b600052604160045260246000fd5b6001600160e01b03198116811461162f57600080fd5b5056fea26469706673582212205f6249abe314f7a61530fbd1cbd18246dc576436994fc8c8bf1c74c0283b25e164736f6c63430008070033",
  "immutableReferences": {},
  "source": "// SPDX-License-Identifier: MIT\npragma solidity >=0.4.22 <0.9.0;\n\nimport \"@openzeppelin/contracts/token/ERC721/ERC721.sol\";\n\ncontract Color is ERC721 {\n    string[] public colors;\n    mapping(string => bool) _colorExists;\n\n    constructor() ERC721(\"Color\", \"COLOR\") {}\n\n    function mint(string memory _color) public {\n        require(!_colorExists[_color]);\n        colors.push(_color);\n        uint256 _id = colors.length - 1;\n        _mint(msg.sender, _id);\n        _colorExists[_color] = true;\n    }\n\n    function totalSupply() public view returns (uint256) {\n        return colors.length;\n    }\n}\n",
  "sourcePath": "/Users/mkhizeryounas/Desktop/Projects/nft/contracts/Color.sol",
  "compiler": {
    "name": "solc",
    "version": "0.8.7+commit.e28d00a7.Emscripten.clang"
  },
  "schemaVersion": "3.4.3",
  "updatedAt": "2021-09-19T23:10:37.289Z",
  "networkType": "ethereum",
  "devdoc": {
    "kind": "dev",
    "methods": {
      "approve(address,uint256)": {
        "details": "See {IERC721-approve}."
      },
      "balanceOf(address)": {
        "details": "See {IERC721-balanceOf}."
      },
      "getApproved(uint256)": {
        "details": "See {IERC721-getApproved}."
      },
      "isApprovedForAll(address,address)": {
        "details": "See {IERC721-isApprovedForAll}."
      },
      "name()": {
        "details": "See {IERC721Metadata-name}."
      },
      "ownerOf(uint256)": {
        "details": "See {IERC721-ownerOf}."
      },
      "safeTransferFrom(address,address,uint256)": {
        "details": "See {IERC721-safeTransferFrom}."
      },
      "safeTransferFrom(address,address,uint256,bytes)": {
        "details": "See {IERC721-safeTransferFrom}."
      },
      "setApprovalForAll(address,bool)": {
        "details": "See {IERC721-setApprovalForAll}."
      },
      "supportsInterface(bytes4)": {
        "details": "See {IERC165-supportsInterface}."
      },
      "symbol()": {
        "details": "See {IERC721Metadata-symbol}."
      },
      "tokenURI(uint256)": {
        "details": "See {IERC721Metadata-tokenURI}."
      },
      "transferFrom(address,address,uint256)": {
        "details": "See {IERC721-transferFrom}."
      }
    },
    "version": 1
  },
  "userdoc": {
    "kind": "user",
    "methods": {},
    "version": 1
  }
}