{
  "contractName": "Color",
  "abi": [
    {
      "inputs": [],
      "stateMutability": "nonpayable",
      "type": "constructor"
    },
    {
      "anonymous": false,
      "inputs": [
        {
          "indexed": true,
          "internalType": "address",
          "name": "owner",
          "type": "address"
        },
        {
          "indexed": true,
          "internalType": "address",
          "name": "approved",
          "type": "address"
        },
        {
          "indexed": true,
          "internalType": "uint256",
          "name": "tokenId",
          "type": "uint256"
        }
      ],
      "name": "Approval",
      "type": "event"
    },
    {
      "anonymous": false,
      "inputs": [
        {
          "indexed": true,
          "internalType": "address",
          "name": "owner",
          "type": "address"
        },
        {
          "indexed": true,
          "internalType": "address",
          "name": "operator",
          "type": "address"
        },
        {
          "indexed": false,
          "internalType": "bool",
          "name": "approved",
          "type": "bool"
        }
      ],
      "name": "ApprovalForAll",
      "type": "event"
    },
    {
      "anonymous": false,
      "inputs": [
        {
          "indexed": true,
          "internalType": "address",
          "name": "from",
          "type": "address"
        },
        {
          "indexed": true,
          "internalType": "address",
          "name": "to",
          "type": "address"
        },
        {
          "indexed": true,
          "internalType": "uint256",
          "name": "tokenId",
          "type": "uint256"
        }
      ],
      "name": "Transfer",
      "type": "event"
    },
    {
      "inputs": [
        {
          "internalType": "address",
          "name": "to",
          "type": "address"
        },
        {
          "internalType": "uint256",
          "name": "tokenId",
          "type": "uint256"
        }
      ],
      "name": "approve",
      "outputs": [],
      "stateMutability": "nonpayable",
      "type": "function"
    },
    {
      "inputs": [
        {
          "internalType": "address",
          "name": "owner",
          "type": "address"
        }
      ],
      "name": "balanceOf",
      "outputs": [
        {
          "internalType": "uint256",
          "name": "",
          "type": "uint256"
        }
      ],
      "stateMutability": "view",
      "type": "function",
      "constant": true
    },
    {
      "inputs": [
        {
          "internalType": "uint256",
          "name": "",
          "type": "uint256"
        }
      ],
      "name": "colors",
      "outputs": [
        {
          "internalType": "string",
          "name": "",
          "type": "string"
        }
      ],
      "stateMutability": "view",
      "type": "function",
      "constant": true
    },
    {
      "inputs": [
        {
          "internalType": "uint256",
          "name": "tokenId",
          "type": "uint256"
        }
      ],
      "name": "getApproved",
      "outputs": [
        {
          "internalType": "address",
          "name": "",
          "type": "address"
        }
      ],
      "stateMutability": "view",
      "type": "function",
      "constant": true
    },
    {
      "inputs": [
        {
          "internalType": "address",
          "name": "owner",
          "type": "address"
        },
        {
          "internalType": "address",
          "name": "operator",
          "type": "address"
        }
      ],
      "name": "isApprovedForAll",
      "outputs": [
        {
          "internalType": "bool",
          "name": "",
          "type": "bool"
        }
      ],
      "stateMutability": "view",
      "type": "function",
      "constant": true
    },
    {
      "inputs": [],
      "name": "name",
      "outputs": [
        {
          "internalType": "string",
          "name": "",
          "type": "string"
        }
      ],
      "stateMutability": "view",
      "type": "function",
      "constant": true
    },
    {
      "inputs": [
        {
          "internalType": "uint256",
          "name": "tokenId",
          "type": "uint256"
        }
      ],
      "name": "ownerOf",
      "outputs": [
        {
          "internalType": "address",
          "name": "",
          "type": "address"
        }
      ],
      "stateMutability": "view",
      "type": "function",
      "constant": true
    },
    {
      "inputs": [
        {
          "internalType": "address",
          "name": "from",
          "type": "address"
        },
        {
          "internalType": "address",
          "name": "to",
          "type": "address"
        },
        {
          "internalType": "uint256",
          "name": "tokenId",
          "type": "uint256"
        }
      ],
      "name": "safeTransferFrom",
      "outputs": [],
      "stateMutability": "nonpayable",
      "type": "function"
    },
    {
      "inputs": [
        {
          "internalType": "address",
          "name": "from",
          "type": "address"
        },
        {
          "internalType": "address",
          "name": "to",
          "type": "address"
        },
        {
          "internalType": "uint256",
          "name": "tokenId",
          "type": "uint256"
        },
        {
          "internalType": "bytes",
          "name": "_data",
          "type": "bytes"
        }
      ],
      "name": "safeTransferFrom",
      "outputs": [],
      "stateMutability": "nonpayable",
      "type": "function"
    },
    {
      "inputs": [
        {
          "internalType": "address",
          "name": "operator",
          "type": "address"
        },
        {
          "internalType": "bool",
          "name": "approved",
          "type": "bool"
        }
      ],
      "name": "setApprovalForAll",
      "outputs": [],
      "stateMutability": "nonpayable",
      "type": "function"
    },
    {
      "inputs": [
        {
          "internalType": "bytes4",
          "name": "interfaceId",
          "type": "bytes4"
        }
      ],
      "name": "supportsInterface",
      "outputs": [
        {
          "internalType": "bool",
          "name": "",
          "type": "bool"
        }
      ],
      "stateMutability": "view",
      "type": "function",
      "constant": true
    },
    {
      "inputs": [],
      "name": "symbol",
      "outputs": [
        {
          "internalType": "string",
          "name": "",
          "type": "string"
        }
      ],
      "stateMutability": "view",
      "type": "function",
      "constant": true
    },
    {
      "inputs": [
        {
          "internalType": "uint256",
          "name": "tokenId",
          "type": "uint256"
        }
      ],
      "name": "tokenURI",
      "outputs": [
        {
          "internalType": "string",
          "name": "",
          "type": "string"
        }
      ],
      "stateMutability": "view",
      "type": "function",
      "constant": true
    },
    {
      "inputs": [
        {
          "internalType": "address",
          "name": "from",
          "type": "address"
        },
        {
          "internalType": "address",
          "name": "to",
          "type": "address"
        },
        {
          "internalType": "uint256",
          "name": "tokenId",
          "type": "uint256"
        }
      ],
      "name": "transferFrom",
      "outputs": [],
      "stateMutability": "nonpayable",
      "type": "function"
    },
    {
      "inputs": [
        {
          "internalType": "string",
          "name": "_color",
          "type": "string"
        }
      ],
      "name": "mint",
      "outputs": [],
      "stateMutability": "nonpayable",
      "type": "function"
    }
  ],
  "bytecode": "0x60806040523480156200001157600080fd5b506040518060400160405280600581526020017f436f6c6f720000000000000000000000000000000000000000000000000000008152506040518060400160405280600581526020017f434f4c4f52000000000000000000000000000000000000000000000000000000815250816000908051906020019062000096929190620000b5565b508051620000ac906001906020840190620000b5565b505050620001b1565b828054620000c3906200015b565b90600052602060002090601f016020900481019282620000e7576000855562000132565b82601f106200010257805160ff191683800117855562000132565b8280016001018555821562000132579182015b828111156200013257825182559160200191906001019062000115565b506200014092915062000144565b5090565b5b8082111562000140576000815560010162000145565b600181811c908216806200017057607f821691505b60208210811415620001ab577f4e487b7100000000000000000000000000000000000000000000000000000000600052602260045260246000fd5b50919050565b61165980620001c16000396000f3fe608060405234801561001057600080fd5b50600436106100f55760003560e01c806370a0823111610097578063bd11f69d11610066578063bd11f69d146101ff578063c87b56dd14610212578063d85d3d2714610225578063e985e9c51461023857600080fd5b806370a08231146101b057806395d89b41146101d1578063a22cb465146101d9578063b88d4fde146101ec57600080fd5b8063095ea7b3116100d3578063095ea7b31461016257806323b872dd1461017757806342842e0e1461018a5780636352211e1461019d57600080fd5b806301ffc9a7146100fa57806306fdde0314610122578063081812fc14610137575b600080fd5b61010d6101083660046112d3565b610274565b60405190151581526020015b60405180910390f35b61012a6102c6565b6040516101199190611423565b61014a610145366004611356565b610358565b6040516001600160a01b039091168152602001610119565b6101756101703660046112a9565b6103f2565b005b6101756101853660046111b5565b610508565b6101756101983660046111b5565b610539565b61014a6101ab366004611356565b610554565b6101c36101be366004611167565b6105cb565b604051908152602001610119565b61012a610652565b6101756101e736600461126d565b610661565b6101756101fa3660046111f1565b610726565b61012a61020d366004611356565b61075e565b61012a610220366004611356565b61080a565b61017561023336600461130d565b6108f2565b61010d610246366004611182565b6001600160a01b03918216600090815260056020908152604080832093909416825291909152205460ff1690565b60006001600160e01b031982166380ac58cd60e01b14806102a557506001600160e01b03198216635b5e139f60e01b145b806102c057506301ffc9a760e01b6001600160e01b03198316145b92915050565b6060600080546102d590611548565b80601f016020809104026020016040519081016040528092919081815260200182805461030190611548565b801561034e5780601f106103235761010080835404028352916020019161034e565b820191906000526020600020905b81548152906001019060200180831161033157829003601f168201915b5050505050905090565b6000818152600260205260408120546001600160a01b03166103d65760405162461bcd60e51b815260206004820152602c60248201527f4552433732313a20617070726f76656420717565727920666f72206e6f6e657860448201526b34b9ba32b73a103a37b5b2b760a11b60648201526084015b60405180910390fd5b506000908152600460205260409020546001600160a01b031690565b60006103fd82610554565b9050806001600160a01b0316836001600160a01b0316141561046b5760405162461bcd60e51b815260206004820152602160248201527f4552433732313a20617070726f76616c20746f2063757272656e74206f776e656044820152603960f91b60648201526084016103cd565b336001600160a01b038216148061048757506104878133610246565b6104f95760405162461bcd60e51b815260206004820152603860248201527f4552433732313a20617070726f76652063616c6c6572206973206e6f74206f7760448201527f6e6572206e6f7220617070726f76656420666f7220616c6c000000000000000060648201526084016103cd565b61050383836109b7565b505050565b6105123382610a25565b61052e5760405162461bcd60e51b81526004016103cd90611488565b610503838383610b1c565b61050383838360405180602001604052806000815250610726565b6000818152600260205260408120546001600160a01b0316806102c05760405162461bcd60e51b815260206004820152602960248201527f4552433732313a206f776e657220717565727920666f72206e6f6e657869737460448201526832b73a103a37b5b2b760b91b60648201526084016103cd565b60006001600160a01b0382166106365760405162461bcd60e51b815260206004820152602a60248201527f4552433732313a2062616c616e636520717565727920666f7220746865207a65604482015269726f206164647265737360b01b60648201526084016103cd565b506001600160a01b031660009081526003602052604090205490565b6060600180546102d590611548565b6001600160a01b0382163314156106ba5760405162461bcd60e51b815260206004820152601960248201527f4552433732313a20617070726f766520746f2063616c6c65720000000000000060448201526064016103cd565b3360008181526005602090815260408083206001600160a01b03871680855290835292819020805460ff191686151590811790915590519081529192917f17307eab39ab6107e8899845ad3d59bd9653f200f220920489ca2b5937696c31910160405180910390a35050565b6107303383610a25565b61074c5760405162461bcd60e51b81526004016103cd90611488565b61075884848484610cbc565b50505050565b6006818154811061076e57600080fd5b90600052602060002001600091509050805461078990611548565b80601f01602080910402602001604051908101604052809291908181526020018280546107b590611548565b80156108025780601f106107d757610100808354040283529160200191610802565b820191906000526020600020905b8154815290600101906020018083116107e557829003601f168201915b505050505081565b6000818152600260205260409020546060906001600160a01b03166108895760405162461bcd60e51b815260206004820152602f60248201527f4552433732314d657461646174613a2055524920717565727920666f72206e6f60448201526e3732bc34b9ba32b73a103a37b5b2b760891b60648201526084016103cd565b60006108a060408051602081019091526000815290565b905060008151116108c057604051806020016040528060008152506108eb565b806108ca84610cef565b6040516020016108db9291906113b7565b6040516020818303038152906040525b9392505050565b600781604051610902919061139b565b9081526040519081900360200190205460ff161561091f57600080fd5b600680546001810182556000919091528151610962917ff652222313e28459528d920b65115c16c04f3efc82aaedc97be59f3f377c0d3f0190602084019061103c565b5060065460009061097590600190611505565b90506109813382610ded565b6001600783604051610993919061139b565b908152604051908190036020019020805491151560ff199092169190911790555050565b600081815260046020526040902080546001600160a01b0319166001600160a01b03841690811790915581906109ec82610554565b6001600160a01b03167f8c5be1e5ebec7d5bd14f71427d1e84f3dd0314c0f7b2291e5b200ac8c7c3b92560405160405180910390a45050565b6000818152600260205260408120546001600160a01b0316610a9e5760405162461bcd60e51b815260206004820152602c60248201527f4552433732313a206f70657261746f7220717565727920666f72206e6f6e657860448201526b34b9ba32b73a103a37b5b2b760a11b60648201526084016103cd565b6000610aa983610554565b9050806001600160a01b0316846001600160a01b03161480610ae45750836001600160a01b0316610ad984610358565b6001600160a01b0316145b80610b1457506001600160a01b0380821660009081526005602090815260408083209388168352929052205460ff165b949350505050565b826001600160a01b0316610b2f82610554565b6001600160a01b031614610b975760405162461bcd60e51b815260206004820152602960248201527f4552433732313a207472616e73666572206f6620746f6b656e2074686174206960448201526839903737ba1037bbb760b91b60648201526084016103cd565b6001600160a01b038216610bf95760405162461bcd60e51b8152602060048201526024808201527f4552433732313a207472616e7366657220746f20746865207a65726f206164646044820152637265737360e01b60648201526084016103cd565b610c046000826109b7565b6001600160a01b0383166000908152600360205260408120805460019290610c2d908490611505565b90915550506001600160a01b0382166000908152600360205260408120805460019290610c5b9084906114d9565b909155505060008181526002602052604080822080546001600160a01b0319166001600160a01b0386811691821790925591518493918716917fddf252ad1be2c89b69c2b068fc378daa952ba7f163c4a11628f55a4df523b3ef91a4505050565b610cc7848484610b1c565b610cd384848484610f2f565b6107585760405162461bcd60e51b81526004016103cd90611436565b606081610d135750506040805180820190915260018152600360fc1b602082015290565b8160005b8115610d3d5780610d2781611583565b9150610d369050600a836114f1565b9150610d17565b60008167ffffffffffffffff811115610d5857610d586115f4565b6040519080825280601f01601f191660200182016040528015610d82576020820181803683370190505b5090505b8415610b1457610d97600183611505565b9150610da4600a8661159e565b610daf9060306114d9565b60f81b818381518110610dc457610dc46115de565b60200101906001600160f81b031916908160001a905350610de6600a866114f1565b9450610d86565b6001600160a01b038216610e435760405162461bcd60e51b815260206004820181905260248201527f4552433732313a206d696e7420746f20746865207a65726f206164647265737360448201526064016103cd565b6000818152600260205260409020546001600160a01b031615610ea85760405162461bcd60e51b815260206004820152601c60248201527f4552433732313a20746f6b656e20616c7265616479206d696e7465640000000060448201526064016103cd565b6001600160a01b0382166000908152600360205260408120805460019290610ed19084906114d9565b909155505060008181526002602052604080822080546001600160a01b0319166001600160a01b03861690811790915590518392907fddf252ad1be2c89b69c2b068fc378daa952ba7f163c4a11628f55a4df523b3ef908290a45050565b60006001600160a01b0384163b1561103157604051630a85bd0160e11b81526001600160a01b0385169063150b7a0290610f739033908990889088906004016113e6565b602060405180830381600087803b158015610f8d57600080fd5b505af1925050508015610fbd575060408051601f3d908101601f19168201909252610fba918101906112f0565b60015b611017573d808015610feb576040519150601f19603f3d011682016040523d82523d6000602084013e610ff0565b606091505b50805161100f5760405162461bcd60e51b81526004016103cd90611436565b805181602001fd5b6001600160e01b031916630a85bd0160e11b149050610b14565b506001949350505050565b82805461104890611548565b90600052602060002090601f01602090048101928261106a57600085556110b0565b82601f1061108357805160ff19168380011785556110b0565b828001600101855582156110b0579182015b828111156110b0578251825591602001919060010190611095565b506110bc9291506110c0565b5090565b5b808211156110bc57600081556001016110c1565b600067ffffffffffffffff808411156110f0576110f06115f4565b604051601f8501601f19908116603f01168101908282118183101715611118576111186115f4565b8160405280935085815286868601111561113157600080fd5b858560208301376000602087830101525050509392505050565b80356001600160a01b038116811461116257600080fd5b919050565b60006020828403121561117957600080fd5b6108eb8261114b565b6000806040838503121561119557600080fd5b61119e8361114b565b91506111ac6020840161114b565b90509250929050565b6000806000606084860312156111ca57600080fd5b6111d38461114b565b92506111e16020850161114b565b9150604084013590509250925092565b6000806000806080858703121561120757600080fd5b6112108561114b565b935061121e6020860161114b565b925060408501359150606085013567ffffffffffffffff81111561124157600080fd5b8501601f8101871361125257600080fd5b611261878235602084016110d5565b91505092959194509250565b6000806040838503121561128057600080fd5b6112898361114b565b91506020830135801515811461129e57600080fd5b809150509250929050565b600080604083850312156112bc57600080fd5b6112c58361114b565b946020939093013593505050565b6000602082840312156112e557600080fd5b81356108eb8161160a565b60006020828403121561130257600080fd5b81516108eb8161160a565b60006020828403121561131f57600080fd5b813567ffffffffffffffff81111561133657600080fd5b8201601f8101841361134757600080fd5b610b14848235602084016110d5565b60006020828403121561136857600080fd5b5035919050565b6000815180845261138781602086016020860161151c565b601f01601f19169290920160200192915050565b600082516113ad81846020870161151c565b9190910192915050565b600083516113c981846020880161151c565b8351908301906113dd81836020880161151c565b01949350505050565b6001600160a01b03858116825284166020820152604081018390526080606082018190526000906114199083018461136f565b9695505050505050565b6020815260006108eb602083018461136f565b60208082526032908201527f4552433732313a207472616e7366657220746f206e6f6e20455243373231526560408201527131b2b4bb32b91034b6b83632b6b2b73a32b960711b606082015260800190565b60208082526031908201527f4552433732313a207472616e736665722063616c6c6572206973206e6f74206f6040820152701ddb995c881b9bdc88185c1c1c9bdd9959607a1b606082015260800190565b600082198211156114ec576114ec6115b2565b500190565b600082611500576115006115c8565b500490565b600082821015611517576115176115b2565b500390565b60005b8381101561153757818101518382015260200161151f565b838111156107585750506000910152565b600181811c9082168061155c57607f821691505b6020821081141561157d57634e487b7160e01b600052602260045260246000fd5b50919050565b6000600019821415611597576115976115b2565b5060010190565b6000826115ad576115ad6115c8565b500690565b634e487b7160e01b600052601160045260246000fd5b634e487b7160e01b600052601260045260246000fd5b634e487b7160e01b600052603260045260246000fd5b634e487b7160e01b600052604160045260246000fd5b6001600160e01b03198116811461162057600080fd5b5056fea26469706673582212201b0477fdbbab84e82b9fa2bd4da3b7458f140dab3431a6c26523899c604ce30264736f6c63430008070033",
  "immutableReferences": {},
  "source": "// SPDX-License-Identifier: MIT\npragma solidity >=0.4.22 <0.9.0;\n\nimport \"@openzeppelin/contracts/token/ERC721/ERC721.sol\";\n\ncontract Color is ERC721 {\n    string[] public colors;\n    mapping(string => bool) _colorExists;\n\n    constructor() ERC721(\"Color\", \"COLOR\") {}\n\n    function mint(string memory _color) public {\n        require(!_colorExists[_color]);\n        colors.push(_color);\n        uint256 _id = colors.length - 1;\n        _mint(msg.sender, _id);\n        _colorExists[_color] = true;\n    }\n}\n",
  "sourcePath": "/Users/mkhizeryounas/Desktop/Projects/nft/contracts/Color.sol",
  "compiler": {
    "name": "solc",
    "version": "0.8.7+commit.e28d00a7.Emscripten.clang"
  },
  "schemaVersion": "3.4.3",
  "updatedAt": "2021-09-19T14:00:31.444Z",
  "networkType": "ethereum",
  "devdoc": {
    "kind": "dev",
    "methods": {
      "approve(address,uint256)": {
        "details": "See {IERC721-approve}."
      },
      "balanceOf(address)": {
        "details": "See {IERC721-balanceOf}."
      },
      "getApproved(uint256)": {
        "details": "See {IERC721-getApproved}."
      },
      "isApprovedForAll(address,address)": {
        "details": "See {IERC721-isApprovedForAll}."
      },
      "name()": {
        "details": "See {IERC721Metadata-name}."
      },
      "ownerOf(uint256)": {
        "details": "See {IERC721-ownerOf}."
      },
      "safeTransferFrom(address,address,uint256)": {
        "details": "See {IERC721-safeTransferFrom}."
      },
      "safeTransferFrom(address,address,uint256,bytes)": {
        "details": "See {IERC721-safeTransferFrom}."
      },
      "setApprovalForAll(address,bool)": {
        "details": "See {IERC721-setApprovalForAll}."
      },
      "supportsInterface(bytes4)": {
        "details": "See {IERC165-supportsInterface}."
      },
      "symbol()": {
        "details": "See {IERC721Metadata-symbol}."
      },
      "tokenURI(uint256)": {
        "details": "See {IERC721Metadata-tokenURI}."
      },
      "transferFrom(address,address,uint256)": {
        "details": "See {IERC721-transferFrom}."
      }
    },
    "version": 1
  },
  "userdoc": {
    "kind": "user",
    "methods": {},
    "version": 1
  }
}